:100000000C945E000C9486000C9486000C94860080
:100010000C9486000C9486000C9486000C94860048
:100020000C9486000C9486000C9486000C94880036
:100030000C9486000C9486000C9486000C94860028
:100040000C9415050C9486000C94CE070C940008B3
:100050000C9486000C9486000C9486000C94860008
:100060000C9486000C948600000000080002010039
:100070000003040700000000000000000102040863
:100080001020408001020408102001020408102002
:10009000040404040404040402020202020203032E
:1000A0000303030300000000250028002B000000CC
:1000B0000000240027002A00C903300811241FBEB5
:1000C000CFEFD8E0DEBFCDBF11E0A0E0B1E0EEEEB3
:1000D000F3E102C005900D92A038B107D9F722E0F4
:1000E000A0E8B1E001C01D92AA3AB207E1F710E022
:1000F000CCEBD0E004C02297FE010E94E209C83B8D
:10010000D107C9F70E9474080C94F5090C940000FB
:100110001F920F920FB60F9211242F933F934F937C
:100120005F936F937F938F939F93AF93BF93EF935F
:10013000FF938091810187FF05C010928500109286
:1001400084001AC020918101332727FD30958091CA
:10015000800190E0281739077CF48091810199276C
:1001600087FD9095FC01EE0FFF1FE80FF91FEE577A
:10017000FE4F808186FD15C0809181018F5F809345
:10018000810120918101332727FD309580918001E5
:1001900090E028173907BCF4809181018C305CF124
:1001A00012C080918101992787FD9095FC01EE0F87
:1001B000FF1FE80FF91FEE57FE4F808160E08F733D
:1001C0000E945306D9CF80918400909185000496B7
:1001D00080349C4918F480E49CE905C08091840037
:1001E00090918500049690938900809388008FEF0A
:1001F0008093810138C020918400309185008091E6
:100200008101992787FD9095FC01EE0FFF1FE80FF4
:10021000F91FEE57FE4F81819281820F931F9093B9
:1002200089008093880080918101992787FD9095AE
:10023000FC01EE0FFF1FE80FF91FEE57FE4F808104
:1002400086FF11C080918101992787FD9095FC015F
:10025000EE0FFF1FE80FF91FEE57FE4F808161E0A0
:100260008F730E945306FF91EF91BF91AF919F91C1
:100270008F917F916F915F914F913F912F910F904F
:100280000FBE0F901F901895209180012C30A0F484
:1002900031E0320F30938001FC012083822F90E007
:1002A000FC01EE0FFF1FE80FF91FEE57FE4F88EB22
:1002B0009BE09283818308952FEFFC0120830895B2
:1002C000DF92EF92FF920F931F93CF93DF93EC0196
:1002D000D62E7A01890188818C3008F066C061E0F1
:1002E0008D2D0E941A068881A82FB0E0FD01EE0F27
:1002F000FF1FEA0FFB1FEE57FE4F2D2D2F7390812E
:10030000907C922B908360E272E06E197F0977FFF8
:1003100002C06D5F7F4F7595679575956795698389
:1003200040E659E0401B510B57FF02C04D5F5F4F45
:1003300055954795559547954A836CE00E948809E5
:100340009CE0899FB001112420E030E0A901460F14
:10035000571FFA01EE0FFF1FE40FF51FEE57FE4F78
:10036000908196FD16C02F5F3F4F2C30310571F7FD
:1003700081110FC01092800082E080938100109262
:10038000850010928400B19A80916F008260809302
:100390006F00888190E0FC01EE0FFF1FE80FF91F4E
:1003A000EE57FE4F8081806480838881DF91CF91FA
:1003B0001F910F91FF90EF90DF90089520E639E0B4
:1003C00040E252E00C946001FC0180818C3070F5B9
:1003D000918128E830E0291B310997FD3395220FE0
:1003E000331F220F331F621773077CF0928128E5B9
:1003F00032E0291B310997FD3395220F331F220F5D
:10040000331F621773070CF49B0122503109220F2E
:10041000331F4FB7F89490E0FC01EE0FFF1FE80F79
:10042000F91FEE57FE4F328321834FBF08954F923D
:100430005F926F927F92AF92BF92CF92DF92EF92D4
:10044000FF920F931F93CF93DF93EC01603282E012
:1004500078070CF040C077FD06C0653B71052CF0B5
:1004600064EB70E002C060E070E0898128E830E071
:10047000281B310987FD3395220F331F220F331FAD
:100480005901CC24B7FCC094DC2C882777FD8095DB
:10049000982F2A8148E552E0421B510927FD5395C8
:1004A000440F551F440F551F2A01662457FC6094C2
:1004B000762C7F926F925F924F9214EBE12EF12C8B
:1004C00000E010E020E030E0A9010E9430090F9028
:1004D0000F900F900F90CE01DF91CF911F910F9150
:1004E000FF90EF90DF90CF90BF90AF907F906F9094
:1004F0005F904F900C94E4010F931F93CF93DF9381
:10050000EC01662359F00E945F0569837A838B832F
:100510009C83DF91CF911F910F9108950E945F05F9
:1005200009811A812B813C81601B710B820B930B1B
:10053000623371058105910530F763E070E080E07A
:1005400090E00E948E05EACF60E00C947C02FC01F2
:1005500013AA14AA15AA16AA11821282138214824F
:10056000411551056105710521F0CB01BA010C94CB
:100570008E050895FB01BA01A901DC01D296FC9316
:10058000EE93D19726E0CF010C946C071F93CF9385
:10059000DF93EC01162F66E071E089A99AA90E9409
:1005A000C1084AE050E0612F89A99AA90E9429094F
:1005B0006DE071E089A99AA90E94C10862E370E028
:1005C00080E090E0DF91CF911F910C948E051F93F6
:1005D000CF93DF93EC01162F8D81882389F189A9B0
:1005E0009AA9DC01ED91FC910480F581E02D09953B
:1005F000892BA9F307C02637310519F128353105B4
:1006000009F41D8289A99AA9DC01ED91FC9104806D
:10061000F581E02D09951816190694F489A99AA96F
:10062000DC01ED91FC910680F781E02D09959C019C
:10063000332723363105F9F6612FCE010E94C60219
:1006400083E6DF91CF911F9108950F931F93CF936E
:10065000DF931F92CDB7DEB78C01662349F081E0AE
:10066000F801858360E0C80149830E94E70249815F
:10067000F80145830F90DF91CF911F910F9108955D
:1006800040ED57E060E070E086EA91E00E94A7024A
:1006900020E032EC41E050E06DE072E086EA91E06B
:1006A0000E94BA0286EA91E00E94A4026EE571E01F
:1006B0008091D7019091D8010E94C1086AE070E052
:1006C00080E090E00E948E0541E060E086EA91E0E3
:1006D0000E9425032AE030E049E050E063E070E04A
:1006E0008DED91E00E94ED0344EB50E061E070E09D
:1006F0008DED91E00E9423044AE550E061E070E056
:100700008DED91E00E94310448E250E061E070E03C
:100710008DED91E00E943F0444E150E062E070E022
:100720008DED91E00E94230448E250E062E070E029
:100730008DED91E00E9431044CE850E062E070E001
:100740008DED91E00E943F048DED91E00E940A043E
:1007500064EF71E080E090E00E948E0560910401FA
:10076000709105018DED91E00E94CF0464EF71E07E
:1007700080E090E00E948E0562E070E08DED91E0F7
:100780000E94910461E070E08DED91E00C94910481
:100790000895EF92FF920F931F93CF93DF93CDEDC8
:1007A000D1E08AE5E82EF12C04EB10E0CE010E94A6
:1007B00044011E821D8218861F82FA86E9861C87E4
:1007C0000B872D9682E0C430D80781F7DF91CF9157
:1007D0001F910F91FF90EF9008950F931F93CF9368
:1007E000DF93EC017C836B83598B488B3E8F2D8F7D
:1007F00003E010E06B817C81CE010E94DE0101509C
:1008000011092D9601151105A9F7DF91CF911F91BF
:100810000F9108950F931F93CF93DF93EC0103E0A3
:1008200010E069857A857E836D83CE010E94170270
:10083000015011092D960115110599F7DF91CF91FE
:100840001F910F9108956330710550F42DE0269F9C
:10085000F001279FF00D1124E80FF91F50874783FF
:1008600008956330710550F42DE0269FF001279F15
:10087000F00D1124E80FF91F528741870895633066
:10088000710550F42DE0269FF001279FF00D1124F3
:10089000E80FF91F5487438708950F931F93CF9351
:1008A000DF93EB018A012097B9F18D819E819A0136
:1008B000281B390B37FF13C06D817E810617170780
:1008C0000CF5655071097E836D83CE010E9417027D
:1008D00064E170E080E090E00E948E05EDCF6D81D4
:1008E0007E816017710774F46B5F7F4F7E836D8329
:1008F000CE010E94170264E170E080E090E00E9467
:100900008E05EDCF1E830D83B801CE01DF91CF910F
:100910001F910F910C941702DF91CF911F910F91AE
:100920000895EF92FF920F931F93CF93DF93EC0103
:1009300080910401909105016817790791F48E0167
:100940007E0187E2E80EF11CF80141855285B8016D
:10095000CE010E944D04035F1F4F0E151F05A1F726
:1009600017C063307105A0F48DE0869FF001879F6A
:10097000F00D1124EC0FFD1F41855285BF01CE0102
:10098000DF91CF911F910F91FF90EF900C944D0448
:10099000DF91CF911F910F91FF90EF900895CF922B
:1009A000DF92EF92FF920F931F93CF93DF93EC01AF
:1009B0007B01809104019091050168177907D1F0BE
:1009C00083E0E816F10440F58DE08E9DB0018F9D27
:1009D000700D11246C0F7D1FFB0143855485CE01E2
:1009E000DF91CF911F910F91FF90EF90DF90CF900B
:1009F0000C944D048E016E01E7E2CE0ED11CF8017D
:100A000043855485B801CE010E944D04035F1F4FFA
:100A10000C151D05A1F7D4CFDF91CF911F910F9138
:100A2000FF90EF90DF90CF9008951F920F920FB636
:100A30000F9211242F933F938F939F93AF93BF9364
:100A40008091050290910602A0910702B0910802E0
:100A50003091040223E0230F2D3720F40196A11DCD
:100A6000B11D05C026E8230F0296A11DB11D2093DC
:100A700004028093050290930602A0930702B093AC
:100A800008028091090290910A02A0910B02B09194
:100A90000C020196A11DB11D8093090290930A02D8
:100AA000A0930B02B0930C02BF91AF919F918F91D5
:100AB0003F912F910F900FBE0F901F9018952FB759
:100AC000F89460910502709106028091070290915E
:100AD00008022FBF08953FB7F894809109029091C2
:100AE0000A02A0910B02B0910C0226B5A89B05C08A
:100AF0002F3F19F00196A11DB11D3FBF6627782F2A
:100B0000892F9A2F620F711D811D911D42E0660F82
:100B1000771F881F991F4A95D1F70895CF92DF92CA
:100B2000EF92FF92CF93DF936B017C010E946B05E4
:100B3000EB01C114D104E104F10489F00E947709AA
:100B40000E946B056C1B7D0B683E734090F381E047
:100B5000C81AD108E108F108C851DC4FEACFDF918B
:100B6000CF91FF90EF90DF90CF900895789484B567
:100B7000826084BD84B5816084BD85B5826085BD99
:100B800085B5816085BDEEE6F0E08081816080837F
:100B9000E1E8F0E010828081826080838081816062
:100BA0008083E0E8F0E0808181608083E1EBF0E029
:100BB000808184608083E0EBF0E0808181608083CD
:100BC000EAE7F0E0808184608083808182608083B6
:100BD0008081816080838081806880831092C100E1
:100BE0000895833081F028F4813099F08230A1F0AB
:100BF00008958730A9F08830B9F08430D1F480911D
:100C000080008F7D03C0809180008F77809380006B
:100C1000089584B58F7702C084B58F7D84BD089513
:100C20008091B0008F7703C08091B0008F7D80935A
:100C3000B0000895CF93DF9390E0FC01E458FF4F9C
:100C40002491FC01E057FF4F8491882349F190E003
:100C5000880F991FFC01E255FF4FA591B4918C5567
:100C60009F4FFC01C591D4919FB7611108C0F894C2
:100C70008C91209582238C93888182230AC06230D4
:100C800051F4F8948C91322F309583238C93888182
:100C9000822B888304C0F8948C91822B8C939FBF05
:100CA000DF91CF9108950F931F93CF93DF931F92FE
:100CB000CDB7DEB7282F30E0F901E859FF4F849116
:100CC000F901E458FF4F1491F901E057FF4F0491E7
:100CD0000023C9F0882321F069830E94F10569810E
:100CE000E02FF0E0EE0FFF1FEC55FF4FA591B49100
:100CF0009FB7F8948C91611103C01095812301C0B6
:100D0000812B8C939FBF0F90DF91CF911F910F91FB
:100D10000895FC01818D228D90E0805C9F4F821BA5
:100D200091098F7399270895FC01918D828D9817F1
:100D300031F0828DE80FF11D858D90E008958FEFE1
:100D40009FEF0895FC01918D828D981761F0828D3F
:100D5000DF01A80FB11D5D968C91928D9F5F9F73EF
:100D6000928F90E008958FEF9FEF089586E298E0CC
:100D7000892B49F080E090E0892B29F00E94260819
:100D800081110C9400000895FC01848DDF01A80FEF
:100D9000B11DA35ABF4F2C91848D90E001968F73A3
:100DA0009927848FA689B7892C93A089B1898C91C2
:100DB00080648C93938D848D981306C00288F38988
:100DC000E02D80818F7D80830895CF93DF93EC01A8
:100DD000888D8823C9F0EA89FB89808185FD05C05B
:100DE000A889B9898C9186FD0FC00FB607FCF5CF95
:100DF000808185FFF2CFA889B9898C9185FFEDCFDD
:100E0000CE010E94C406E7CFDF91CF910895CF9223
:100E1000DF92FF920F931F93CF93DF931F92CDB773
:100E2000DEB76C01DC015B969C915B975C968C91C4
:100E30005C97981307C05096ED91FC915197808173
:100E400085FD32C0F601038D10E00F5F1F4F0F7359
:100E50001127F02EF601848DF81211C00FB607FC91
:100E6000F9CFD6015096ED91FC915197808185FF85
:100E7000F1CFC60169830E94C4066981EBCF838DDF
:100E8000E80FF11DE35AFF4F6083D6015B960C9388
:100E90005B975296ED91FC9153978081806280839D
:100EA00081E058968C930DC0D6015696ED91FC9139
:100EB000579760835096ED91FC91519780818064A3
:100EC000808381E090E00F90DF91CF911F910F918F
:100ED000FF90DF90CF900895BF92CF92DF92EF9274
:100EE000FF92CF93DF93EC016A017B01B22EE88978
:100EF000F98982E08083411581EE5807610571050B
:100F0000A1F060E079E08DE390E0A70196010E94F6
:100F10009409215031094109510956954795379552
:100F20002795211580E1380798F0E889F989108222
:100F300060E874E88EE190E0A70196010E949409B0
:100F40002150310941095109569547953795279503
:100F5000EC85FD853083EE85FF852083188EEC8936
:100F6000FD89B082EA89FB89808180618083EA897A
:100F7000FB89808188608083EA89FB898081806821
:100F80008083EA89FB8980818F7D8083DF91CF9187
:100F9000FF90EF90DF90CF90BF9008951F920F9237
:100FA0000FB60F9211242F938F939F93EF93FF937C
:100FB000E0911D02F0911E028081E0912302F091E8
:100FC000240282FD12C09081809126028F5F8F7370
:100FD00020912702821751F0E0912602F0E0E35FB2
:100FE000FD4F958F8093260201C08081FF91EF9184
:100FF0009F918F912F910F900FBE0F901F9018957A
:101000001F920F920FB60F9211242F933F934F937D
:101010005F936F937F938F939F93AF93BF93EF9360
:10102000FF938DE092E00E94C406FF91EF91BF9183
:10103000AF919F918F917F916F915F914F913F9170
:101040002F910F900FBE0F901F9018958DE092E09A
:101050000E94890621E0892B09F420E0822F08955F
:101060001092100210920F0288EE93E0A0E0B0E020
:101070008093110290931202A0931302B093140272
:1010800084E791E090930E0280930D0285EC90E04E
:1010900090931A028093190284EC90E090931C02C2
:1010A00080931B0280EC90E090931E0280931D02BF
:1010B00081EC90E09093200280931F0282EC90E0FC
:1010C000909322028093210286EC90E09093240278
:1010D0008093230210922602109227021092280277
:1010E00010922902089508950E94B6050E9473087F
:1010F0000E944003C6EBD6E00E94C8032097E1F3AC
:101100000E94B606F9CFCF92DF92EF92FF920F9333
:101110001F93CF93DF936C017A01EB01E60EF71E6C
:1011200000E010E0CE15DF0561F06991D601ED9188
:10113000FC910190F081E02DC6010995080F191F5F
:10114000F1CFC801DF91CF911F910F91FF90EF90E8
:10115000DF90CF9008956115710581F0DB010D904E
:101160000020E9F7AD0141505109461B570BDC0146
:10117000ED91FC910280F381E02D099480E090E0F4
:1011800008950C94AB088F929F92AF92BF92CF922A
:10119000DF92EF92FF920F931F93CF93DF93CDB720
:1011A000DEB7A1970FB6F894DEBF0FBECDBF7C01AE
:1011B000C42EE52FCB01D22E19A221E02D1510F05F
:1011C0002AE0D22E8E010F5D1F4F8D2C912CA12C69
:1011D000B12C6C2D7E2FA50194010E9494098C2DB9
:1011E000D29E80191124015011098A3014F4805DB7
:1011F00001C0895CF8018083211531054105510545
:1012000021F0C22EE32FCA01E4CFB801C7010E942A
:10121000AB08A1960FB6F894DEBF0FBECDBFDF912D
:10122000CF911F910F91FF90EF90DF90CF90BF90E3
:10123000AF909F908F9008952115310541F4DC0106
:10124000ED91FC910190F081E02D642F09940C94B4
:10125000C3089A01462F50E060E070E00C941C092E
:101260004F925F926F927F92AF92BF92CF92DF9236
:10127000EF92FF920F931F93CF93DF93CDB7DEB71B
:1012800029013A01621B730B840B950B29893A895A
:101290004B895C892A193B094C095D09298B3A8BDA
:1012A0004B8B5C8B9B01AC0169897A898B899C890A
:1012B0000E947809E418F50806091709A8019701A2
:1012C0000E94B6092A0D3B1D4C1D5D1DCA01B901C6
:1012D000DF91CF911F910F91FF90EF90DF90CF9012
:1012E000BF90AF907F906F905F904F90089508955A
:1012F000DB018F939F930E94D509BF91AF91A29F6D
:10130000800D911DA39F900DB29F900D1124089503
:10131000991B79E004C0991F961708F0961B881F47
:101320007A95C9F780950895A1E21A2EAA1BBB1BD6
:10133000FD010DC0AA1FBB1FEE1FFF1FA217B307A1
:10134000E407F50720F0A21BB30BE40BF50B661FB7
:10135000771F881F991F1A9469F76095709580957B
:1013600090959B01AC01BD01CF010895052E97FB1F
:101370001EF400940E94CD0957FD07D00E949409E5
:1013800007FC03D04EF40C94CD0950954095309550
:1013900021953F4F4F4F5F4F0895909580957095E1
:1013A00061957F4F8F4F9F4F08950E94E609A59F3B
:1013B000900DB49F900DA49F800D911D1124089550
:1013C000EE0FFF1F0590F491E02D0994A29FB0014C
:1013D000B39FC001A39F700D811D1124911DB29F69
:0E13E000700D811D1124911D0895F894FFCF0A
:1013EE0001000000FFFF564D4450435F005F564D15
:1013FE004450430D0A004572726F723A2041747464
:10140E00656D707420746F20736574206120726531
:10141E0061642D6F6E6C79207661726961626C65A4
:10142E00206F7220646174612074797065206E6F14
:10143E007420737570706F727465640D0A00564D6A
:10144E004450565F317C315F564D4450560D0A0064
:10145E0000000000070783088906A2069406E50629
:00000001FF
